:020000040800F2
:100000006847002065340008A9040008AB04000814
:10001000AF040008B3040008B704000800000000A3
:10002000000000000000000000000000BB04000809
:10003000BD04000800000000BF040008C10400085F
:100040007F3400087F3400087F3400087F340008C4
:100050007F3400087F3400087F3400087F340008B4
:100060007F3400087F3400087F3400087F340008A4
:100070007F3400087F3400087F3400087F34000894
:100080007F3400087F3400087F3400087F34000884
:100090007F3400087F3400087F3400087F34000874
:1000A0007F3400087F3400087F3400087F34000864
:1000B0007F3400084F0700087F3400087F340008B1
:1000C0007F3400087F3400087F3400087F34000844
:1000D0007F3400089F310008D9330008E71E00086C
:1000E0007F3400087F3400087F3400087F34000824
:1000F0007F3400087F3400087F3400087F34000814
:100100007F3400087F3400087F3400087F34000803
:100110007F3400087F3400087F3400087F340008F3
:100120007F3400087F3400087F3400087F340008E3
:1001300000F002F800F0B0F80AA090E8000C824449
:100140008344AAF10107DA4501D100F0A5F8AFF226
:10015000090EBAE80F0013F0010F18BFFB1A43F0A5
:100160000103184704A2000024A200000A444FF033
:10017000000C10F8013B13F0070408BF10F8014B06
:100180001D1108BF10F8015B641E05D010F8016B4B
:10019000641E01F8016BF9D113F0080F1EBF10F8AF
:1001A000014BAD1C0C1B09D16D1E58BF01F801CBD2
:1001B000FAD505E014F8016B01F8016B6D1EF9D555
:1001C0009142D6D37047000000230024002500266A
:1001D000103A28BF78C1FBD8520728BF30C148BFAA
:1001E0000B6070476E2905F05384702905F0CB87AA
:1001F000662909F06E86652909F06B86672909F082
:1002000068866129AFF3008003681B0A28BF41F0AC
:100210008001692905F0EE81642905F0EB817529DB
:1002200005F0E8816F2905F05887782905F0978750
:10023000E92905F0F386E42905F0F086F52905F0B3
:10024000ED86EF2905F05587F82905F096870368B4
:10025000DB0928BF41F08001632905F0628673291C
:1002600005F06786E32906F0FD80F32906F0028198
:10027000002070471FB506F059F804000020002147
:1002800008F0A0FF401C60600020002108F0B0FFD3
:10029000E0601FBD10B510BD06F0B0F91146FFF7C4
:1002A000E9FF00F009F806F021FC03B4FFF7F2FFC4
:1002B00003BC03F035F800001FB500244FF4A06024
:1002C00003F0F0F802F0C2FF9C21062001F012FBBF
:1002D0000121402003F063FC4FF4E13003F02FF8DC
:1002E00041F61F4140F2E73000F006FA4FF4E130EA
:1002F00002F0F8FE01F03CF900F0D4F902F033FB13
:1003000002F059FB02F03DFA4FF4E13001F008FB36
:100310006EE0B4203749086037480078012867D17B
:1003200036480078002863D00020334908703448EC
:100330003449354A354BCDE90032CDE90210344B12
:10034000344A35A1414805F0EFF82D4B2D4A2E498E
:100350003FA005F0DDF83D493FA005F0D9F83B4846
:1003600002F08EFB3E480078012815D13D48006818
:10037000052809DB3C480078401C3B4908703B4895
:100380000078401C3949087039488068401C384959
:10039000886002F0FBFD02E000203349087032481B
:1003A000007808280ADD33A005F0B2F801F0D0F893
:1003B00001203849887000202B49087036480068B1
:1003C000012815D1002034490860344908703449A7
:1003D000086002F029FD601CC4B23248007838B1D0
:1003E000022C05DB002401F0B3F8012029498870B4
:1003F0008FE700001800002054000020E9000020D2
:10040000AF0000200B22002001220020EC21002060
:10041000F7210020A80000202A48512C383830301D
:100420003030303939382C56312C25732C412C255D
:10043000732C4E2C25732C452C25732C25732C25C1
:10044000732C46464646464646462300780500201D
:1004500025730D0A25730D0A25730D0A000000008F
:10046000F20400209000002003010020040100207D
:1004700008230020C1ACD0F8CAA7B0DCB4CECAFDB6
:10048000B9FDB6E0A3ACC4A3BFE9D6D8C6F40D0A43
:10049000000000002823002050000020F00400206D
:1004A0004C00002005010020704700BFFEE700BFA0
:1004B000FEE700BFFEE700BFFEE7704770477047EA
:1004C000704700000CB50020019000906C48006857
:1004D00040F480306A49086000BF6948006800F451
:1004E000003000900198401C0190009818B90198C4
:1004F000B0F5A06FF1D16248006800F4003010B18F
:100500000120009001E0002000900098012843D1D4
:100510005C48006840F010005A49086008460068CE
:1005200020F0030008600846006840F00200086000
:100530005348406852494860084640684860084649
:10054000406840F4806048600846406820F47C10B1
:1005500048600846406840F4E81048600846006873
:1005600040F08070086000BF4548006800F00070EF
:100570000028F9D04248406820F003004049486014
:100580000846406840F00200486000BF3C484068B0
:1005900000F00C000828F9D10CBD10B5FFF792FF50
:1005A00010BD10B53648006840F0010034490860BD
:1005B00008464068344908403149486008460068A8
:1005C000324908402E4908600846006820F480201F
:1005D00008600846406820F4FE0048604FF41F00A1
:1005E0008860FFF7DAFF4FF000602949086010BD0E
:1005F00010B5002100200022214B5B6803F00C01A4
:1006000021B1042906D0082928D107E0214B224C2A
:10061000236027E01F4B204C236023E0184B5B68CE
:1006200003F47010164B5B6803F48032022303EB73
:10063000904022B9194B4343174C23600DE0104BF7
:100640005B6803F4003323B1144B4343124C236023
:1006500003E0104B4343104C236003E00D4B0E4C62
:10066000236000BF00BF064B5B68C3F303130C4C51
:10067000E15C094B1B68CB40074C236010BD0000B8
:1006800000100240002002400000FFF8FFFFF6FECD
:1006900008ED00E000127A000000002000093D0093
:1006A0000400002008B50121082003F085FA20206D
:1006B000ADF8000010208DF8030003208DF8020033
:1006C00069460C4802F0BCFF20210A4803F067F895
:1006D0004020ADF8000010208DF8030003208DF8B5
:1006E00002006946034802F0ABFF4021014803F0D5
:1006F00056F808BD000C01407FB505460C460121A7
:10070000022003F066FAADF80850ADF8044000206E
:10071000ADF80A00ADF8060001A9934803F088FD82
:1007200001221146904804F0FAF81D208DF80000CF
:1007300001208DF801008DF802008DF80300684655
:1007400002F0B5FE0121884804F0CEF87FBD7FB5E8
:100750000121854804F091FB002873D001218248D3
:1007600004F09CFB81480068401C804908600846F2
:1007700000680A21B0FBF1F201FB120038B97C4895
:10078000006820B17A480068401E794908607948BD
:10079000807840B97648006810B101F0BDF802E0F9
:1007A00075A004F0B5FE77480078062807D2DFE888
:1007B00000F0030708090A1B012073490860D1E013
:1007C00000BF00BF00BF694800680521B0FBF1F21F
:1007D00001FB120038B96C48006808B9012000E03C
:1007E000002069490860BDE000206749086067484B
:1007F0000068401C65490860084600680521B0FB98
:10080000F1F201FB120010BB6148007861490978E0
:10081000084050B15C48001F006808B9012000E0A2
:1008200000205949091F086011E059480078012843
:1008300009D158480078012805D001205249091FE4
:10084000086004E08FE000204F49091F086052480B
:10085000007878B951480078401C50490870084623
:100860000078962190FBF1F201FB120010B90120F3
:1008700049490870454800680A21B0FBF1F201FBC4
:100880001200002857D142480078012844D10020A6
:10089000434908603E4908703C4800689621B0FB17
:1008A000F1F201FB1200002832D13E4A3E493F4896
:1008B00001F0CBFA3C4803C8CDE900013B480CC825
:1008C0003BA004F025FE384803C8CDE902013749B2
:1008D00003C9CDE900013E483E490CC803C900F0F8
:1008E000EBFC044600223C4B08F0DEFF3B4A03C20F
:1008F0003A480CC83AA004F00BFE2C4903C9354A0B
:1009000003C2294903C9324A03C201203B49087086
:1009100000203B49086002E000201D490870204883
:100920000068401C1E49086008460068782802D309
:100930000120344908603448007890B93348006891
:10094000401C32490860084600686421B0FBF1F29F
:1009500001FB120028B901202B49087000202B4907
:10096000086000BF00BF7FBD000400405C000020A5
:100970001800002028230020B4EFB5BDD0C4CCF867
:100980000D0A00000601002098812142600000202D
:10099000E90000200701002054000020640000202E
:1009A0004C000020400000202800002020000020F3
:1009B000C2CBB2A8BAF3B5C4B0D9B6C8B5D8CDBC0D
:1009C000CEB3B6C825662CBEADB6C825660D0A00E6
:1009D000380000203000002000408F40F800002048
:1009E0000D0AC1BDB4CEC9CFB4ABB5C4BEE0C0EB37
:1009F000CEAA256C666D0D0A00000000580000208C
:100A00004800002050000020560000206800002010
:100A10002DE9F04104460D46FE480CC82046294603
:100A200008F042FF06460022FB4B08F0E5FCBDE85B
:100A3000F0812DE9F04F91B006460F4614461D4651
:100A40003046394608F06CFE1090002801DB109902
:100A500001E010994942084608F0BFFECDE90A01BD
:100A600008F08AFBED4AEE4BCDE90C0108F01CFFC3
:100A7000EA4AEC4BCDE90E013046394608F014FF46
:100A800022462B46CDE9080108F00EFF22462B46F0
:100A9000CDE90C01E148E24908F006FF22462B4669
:100AA000CDE9040108F000FF22462B46CDE90801FC
:100AB0000020DD4908F0F8FE00224FF08043CDE928
:100AC00004013046394608F0EFFE0022D74BCDE94D
:100AD000000108F0D5FBCDE90201DDE9042308F0AF
:100AE000CFFBCDE90601DDE9082308F0C9FBCDE91C
:100AF0000A01DDE90C2308F0C3FB8246DDE90E2381
:100B000008F0BEFB8046894600224FF08043304605
:100B1000394608F0C9FE8246BE480CC8504608F067
:100B2000C3FECDE9020108F0D7FA0022C04BCDE99F
:100B3000040108F0B9FE0022BE4BCDE908013046A1
:100B4000394608F0B1FE8246B2480CC8504608F05B
:100B5000ABFECDE9020108F0BFFA0022B44BCDE9AB
:100B6000040108F0A1FECDE90601DDE9082308F043
:100B700087FB00224FF08043CDE90A0108F094FE84
:100B80000022A94BCDE90C0108F036FC42464B4649
:100B9000CDE90E0108F074FB804689460022A24B85
:100BA0002046294608F028FC82469A480CC8504640
:100BB00008F07AFECDE9020108F08EFA00229E4B81
:100BC000CDE9040108F070FECDE9080191480CC898
:100BD0002046294608F068FECDE9040108F07CFAB9
:100BE00082460022924B08F05FFECDE90601DDE966
:100BF000082308F045FB00224FF08043CDE90A01AD
:100C000008F052FE0022884BCDE90C0108F0F4FBFD
:100C100042464B46CDE90E0108F032FB804689463C
:100C20007C480CC82046294608F03EFE0022834B33
:100C3000CDE9020108F0E0FB824608F04DFA0022FF
:100C40007F4BCDE9040108F02FFE00227D4BCDE95A
:100C500008012046294608F0CFFBCDE902016D4886
:100C60000CC8029808F020FE824608F035FA0022EF
:100C7000754BCDE9040108F017FECDE90601DDE969
:100C8000082308F0FDFA00224FF08043CDE90A0165
:100C900008F00AFE0022644BCDE90C0108F0ACFB21
:100CA00042464B46CDE90E0108F0EAFA80468946F5
:100CB0004046494611B0BDE8F08F2DE9F04F8FB0A6
:100CC00004460D4692469B462046294608F028FDDC
:100CD0000E90002801DB0E9901E00E99494208466A
:100CE00008F07BFDCDE9080108F046FA4B4A4D4B70
:100CF000CDE90A0108F0D8FD484A4A4BCDE90C017C
:100D00002046294608F0D0FD52465B46CDE9060153
:100D100008F0CAFD414A434BCDE90A012046294665
:100D200008F0C2FD22462B46CDE9020108F0BCFDC9
:100D300052465B46CDE9060100204FF0804108F0A5
:100D4000B3FD0022414BCDE902012046294608F0BF
:100D500097FACDE90001DDE9022308F091FACDE927
:100D60000401DDE9062308F08BFACDE90801DDE98D
:100D70000A2308F085FA8046DDE90C2308F080FAA2
:100D800006460F4600224FF080432046294608F0D1
:100D90008BFD80461F480CC8404608F085FDCDE914
:100DA000000108F099F90022214BCDE9020108F079
:100DB0007BFD00221F4BCDE906012046294608F0A5
:100DC00073FD804613480CC8404608F06DFDCDE920
:100DD000000108F081F90022154BCDE9020108F06D
:100DE00063FDCDE90401DDE9062308F049FA00229C
:100DF0004FF08043CDE9080108F056FD00220A4B70
:100E0000CDE90A0108F0F8FA32463B46CDE90C017B
:100E10001EE0000070000020008066409A999999B9
:100E20009999C93F9999B93F00000840000059C0FD
:100E300000003440000018400000444000003E40E4
:100E400000007440000028400000644000C0724070
:100E500008F016FA06460F460022FE4B20462946A9
:100E600008F0CAFACDE90001FB480CC8009808F068
:100E70001BFD804608F030F90022F84BCDE9020155
:100E800008F012FDCDE90601F3480CC820462946BA
:100E900008F00AFDCDE9020108F01EF980460022A3
:100EA000EF4B08F001FDCDE90401DDE9062308F070
:100EB000E7F900224FF08043CDE9080108F0F4FC87
:100EC0000022E44BCDE90A0108F096FA32463B468F
:100ED000CDE90C0108F0D4F906460F460022E14B9B
:100EE0002046294608F088FA8046DB480CC8404670
:100EF00008F0DAFCCDE9000108F0EEF80022DA4B48
:100F0000CDE9020108F0D0FC0022D84BCDE9060162
:100F10002046294608F070FACDE90001CE480CC8F9
:100F2000009808F0C1FC804608F0D6F80022D04BAB
:100F3000CDE9020108F0B8FCCDE90401DDE90623A2
:100F400008F09EF900224FF08043CDE9080108F037
:100F5000ABFC0022BF4BCDE90A0108F04DFA324646
:100F60003B46CDE90C0108F08BF906460F463046AA
:100F700039460FB0BDE8F08F2DE9F04F93B004462D
:100F80000D4616461F460022BA4B2046294608F059
:100F9000B1FE0022B84BCDE90A013046394608F0CF
:100FA000A9FECDE90801DDE90A23FFF742FD8246EB
:100FB0008B460022AF4B2046294608F09BFE0022BC
:100FC000AD4BCDE90A013046394608F093FECDE934
:100FD0000801DDE90A23FFF770FECDE910010022C8
:100FE000A64B2046294608F007FACDE90A019A489F
:100FF0000CC80A9808F058FCCDE90E01DDE90E0195
:1010000008F06AF88046894642464B469C4903C927
:1010100008F04AFC42464B46CDE9080108F044FC82
:101020000022984BCDE90A0108F072FD80468946FE
:101030004046494608F0A0F8CDE90C014046494633
:10104000DDE90C2308F030FCCDE904018C480CC824
:1010500000208C4908F04EFECDE900018A480CC8FA
:10106000009808F021FCCDE90201DDE9042308F035
:10107000C3F9CDE9060178480CC8069808F014FCBD
:1010800000227E4BCDE90A015046594608F00CFC7F
:10109000CDE90801DDE90A2308F0AEF982468B4666
:1010A000DDE90E0107F078FACDE904017649DDE9C2
:1010B0000C2303C908F0A0F9CDE90201DDE90423FE
:1010C00008F0F2FBCDE9060163480CC8069808F069
:1010D000EBFB0022694BCDE90A01DDE9100108F0C4
:1010E000E3FBCDE90801DDE90A2308F085F9CDE944
:1010F000100152465B462046294608F0C1F81C9A6A
:1011000003C230463946DDE9102308F0B9F81D9ACC
:1011100003C213B0BDE8F08F2DE9F04F8FB0044645
:101120000D4616461F46B046B946A246AB4657483E
:101130000CC85046594608F0B7FBCDE9020107F04C
:10114000CBFF534A534BCDE9040108F0ADFB5246A7
:101150005B46CDE908015046594608F0A5FB4246DA
:101160004B46CDE902014046494608F09DFBCDE9DA
:101170000001DDE9022308F083F8CDE9040107F05E
:10118000FBFFCDE90601DDE9082308F079F8CDE998
:101190000C013E480CC84046494608F085FBCDE9A5
:1011A000020107F0F9F93C4A3C4BCDE9040108F093
:1011B0007BFB42464B46CDE908015046594607F0B5
:1011C00015F9CDE90601DDE9082308F059F8CDE964
:1011D0000A01DDE90A0107F0DFF9CDE90601DDE9E1
:1011E0000C2308F061FB2E4A2E4BCDE9080108F0D4
:1011F00047F8199A03C2DDE90A0107F06DFFCDE94E
:101200000601DDE90C2308F04FFB274A274BCDE907
:10121000080108F035F8189A03C20FB0BDE8F08F46
:101220002DE9FF5F04460D4616461F46DDE90EAB6D
:1012300032463B4620462946CDE900ABFFF79CFEEF
:10124000CDE900ABDBE90083DAE900014246CDE9F4
:1012500002012DE000000840700000200000444022
:101260000000344000003E4000C0724000002840B2
:1012700000C062400080414000405A40008066400B
:10128000780000200000F03F80000020880000204F
:10129000F168E388B5F8F43E54E41071732AC93E4E
:1012A00039B4C876BE9F7A3FFA7E6ABC7493783FA1
:1012B000FFF732FFBDE8FF9F2DE9F04F9BB00646D8
:1012C0000F4692469B4650485049CDE9180130469A
:1012D0003946FFF79DFB80468946DDE92401FFF78B
:1012E00097FBCDE9160140464946DDE9162308F093
:1012F00001FDCDE91401DDE92601FFF789FBCDE908
:10130000100150465946FFF783FBCDE90E01DDE998
:10131000102308F0EFFCCDE9120100224FF08043CA
:10132000DDE9120108F068F8CDE9000107F0D4FE0C
:1013300000224FF08043CDE9020107F0E1F9CDE949
:101340000601DDE9160107F027F9CDE90201404663
:10135000494607F021F9CDE90001DDE9022308F053
:10136000A3FACDE90401DDE9062308F09DFA002285
:101370004FF08043CDE90A01DDE9140108F03CF8A3
:10138000CDE9040107F0A8FE00224FF08043CDE92B
:10139000060107F0B5F9CDE90801DDE90A2307F0F8
:1013A0006FFFCDE90C0107F0E7FECDE90E0106F075
:1013B000D5FD00224FF08043CDE9100108F074FA0A
:1013C00004460D4620462946DDE9182308F06CFA4C
:1013D00004460D4600220E4B2046294608F064FACA
:1013E000CDE90C0108F0CCF90F9008F00DFA0022BD
:1013F000074BCDE9100107F0FFFF04460D462046DC
:1014000029461BB0BDE8F08F8D976E1223EAB840D5
:101410000088C3400146088870472DE9F041054621
:101420000E461746002407E036F81410284603F04D
:10143000A0FEAD1C601C84B2BC42F5DBBDE8F081AF
:1014400030B503460C461546002207E01846FFF764
:10145000E1FF24F812009B1C501C82B2AA42F5DB6B
:1014600030BD2DE9F05F80468A461746B8F1006F1F
:1014700002D3EE48804501D3BDE8F09F03F031FD73
:10148000A8F1006B4FEADB25CBF34909C9F580646D
:10149000A74200DC3C464DE04FF0006101EBC52067
:1014A0004A14E349FFF7CCFF00260BE009EB0600E6
:1014B000DF4931F810004FF6FF71884200D003E099
:1014C000701C86B2A642F1DB00BFA6421BDA4FF0C9
:1014D000006101EBC52003F049FD002608E03AF861
:1014E000160006EB0901D24A22F81100701C86B2E0
:1014F000A642F4DB4FF0006101EBC5204A14CC4951
:10150000FFF78BFF04E0224651464046FFF785FF78
:10151000A74200D10FE06D1C4FF000090AEB440A0E
:10152000A044381B87B2B7F5806F02DD4FF48064AA
:1015300000E03C46B0E700BF03F0DFFC00BF9BE7E4
:1015400013B50446012201A92046FFF78AFF1CBDFE
:1015500010B503F0A5FF0521B64803F0AAFFB54971
:101560004861012088610E22B348FFF77AFF10BD61
:1015700010B500240E22AF49AF48FFF761FFAD4818
:101580008069012813D103F08BFF0521A94803F0DE
:1015900090FF0446A7484069A04205D1A5480068CD
:1015A000401CA449086002E00020A2498861A148CB
:1015B0008069012809D001209E4908600020486008
:1015C0008860C860086101208861FFF7C1FF994801
:1015D00001689AA003F09CFF964841689CA003F024
:1015E00097FF9448C1689FA003F092FF914801695A
:1015F000A1A003F08DFF10BD10B50446312C00DD15
:101600000024601CA34909784843A249097801EBEA
:101610008101B0EB410F09DC9E490978864A04FB41
:10162000012032229C49FFF71CFF2EE0092C0DDD22
:10163000132C0BDCA4F10A01964A1278974B01FB9C
:10164000023032229449FFF70CFF1EE0132C0DDD0F
:101650001D2C0BDCA4F114018E4A1278904B01FB77
:10166000023032228C49FFF7FCFE0EE01D2C0CDD0F
:10167000272C0ADCA4F11E01864A1278894B01FB53
:10168000023032228449FFF7ECFE87A003F040FFCE
:1016900010BD10B50446601C7E49097848437D4959
:1016A000097801EB8101B0EB410F09DC7949097838
:1016B000614A04FB012032228449FFF7C1FE2EE07B
:1016C000092C0DDD132C0BDCA4F10A01714A1278F0
:1016D000724B01FB023032227C49FFF7B1FE1EE063
:1016E000132C0DDD1D2C0BDCA4F11401694A1278BA
:1016F0006B4B01FB023032227449FFF7A1FE0EE072
:101700001D2C0CDD272C0ADCA4F11E01614A127885
:10171000644B01FB023032226C49FFF791FE10BD91
:101720002DE9F04707468846B7F1006F02D33F48DE
:10173000874201D3BDE8F08703F0D3FBA7F1006A2D
:101740004FEADA24CAF34909C9F58065A84500DCE7
:10175000454621E04FF0006101EBC4204A143449B2
:10176000FFF76EFE00260BE009EB0600304931F86A
:1017700010004FF6FF71884200D003E0701C86B263
:10178000AE42F1DB00BFAE4205DA4FF0006101EB83
:10179000C42003F0EBFB00E0DCE700BF03F0ADFB8F
:1017A00000BFC7E72DE9F04706460F46B6F1006FC8
:1017B00002D31E48864201D3BDE8F08703F091FBB7
:1017C000A6F1006A4FEADA28CAF34909C9F580642C
:1017D000A74200DC3C4622E04FF0006101EBC8204C
:1017E0004A141349FFF72CFE00250BE009EB050016
:1017F0000F4931F810004FF6FF71884200D003E026
:10180000681C85B2A542F1DB00BFA54203DA30A017
:1018100003F07EFE04E033A003F07AFE00E0DBE795
:1018200000BF03F06AFB00BFC6E700000000080825
:10183000DC0500200823002000F00008C9E8B1B84A
:10184000C6F4B6AFB4CECAFDA3BA25640D0A000033
:101850004137D6D8C6F4B4CECAFDA3BA25640D0A62
:1018600000000000504F5354CAA7B0DCB4CECAFDEC
:10187000A3BA25640D0A0000475053B3ACCAB1CED9
:10188000B4B6A8CEBBB4CECAFDA3BA25640D0A0D6A
:101890000A000000F00000207805002000F4000895
:1018A00000F8000800FC0008CEB4C9CFB4ABB3C93F
:1018B000B9A6B5C4475053CAFDBEDDD2D1B1A3B459
:1018C000E6464C4153480D0A0D0A0000140500205D
:1018D000BCECD1E9B5C4464C415348B2BBCEAABF1B
:1018E000D50D0A00BCECD1E9B5C4464C415348BF04
:1018F000D50D0A0070B505460C4645F2555003F06B
:10190000AFFD284603F0AFFD204603F0AFFD03F026
:10191000B0FD03F0B3FD70BD10B503F0AAFD10BD1E
:1019200010B586B004460121082002F045F90121D6
:10193000880402F04EF9F74802F0A2F94FF4006073
:10194000ADF8100004208DF8130004A9F24801F04E
:1019500077FE00940020ADF80400ADF80600ADF865
:101960000800ADF80C000420ADF80A006946E9480B
:1019700002F0C9F90121E74802F051FA012240F2D0
:101980002551E44802F057FA01226021E14802F0B3
:1019900052FA002240F22771DE4802F04CFA27206A
:1019A0008DF8140002208DF8150001208DF8160026
:1019B0008DF8170005A801F07AFD06B010BD0021D2
:1019C000D64A1160D64A1170D64A1180002005E02F
:1019D0000021D54A42F82010411CC8B21428F7DB78
:1019E0007047D24800790830D0490871084600791C
:1019F000182879DB08460079183808710846C0783D
:101A0000401CC870084680780D287CD2DFE800F0C2
:101A10007B0744082709280A0B290C2A0D0000BF60
:101A200000BF00BF00BF00BF00BFC048C0781F2874
:101A300014DDBE48C0781F38BC49C870084680789D
:101A4000401C8870084680780C2807DD084680789E
:101A50000C38887008460088401C088053E000BF9E
:101A600000BF00BFB148C0781E2814DDAF48C07861
:101A70001E38AE49C87008468078401C88700846F9
:101A800080780C2807DD084680780C388870084676
:101A90000088401C088036E0A44909884FF4C872C9
:101AA00091FBF2F302FB131181B1A0490888C11721
:101AB00000EB91718910A0EB8101B1B99B490988B4
:101AC000642291FBF2F302FB131171B19748C078C5
:101AD0001D2817DD9548C0781D389449C870084600
:101AE0008078401C88700DE00EE09048C0781C287B
:101AF00008DD8E48C0781C388C49C870084680784C
:101B0000401C887000BF00BF88480088B0F5FC6F9B
:101B10001BDD864880780C2803DD84488078012806
:101B200013DB8248C0781F2803DD8048C078012875
:101B30000BDB7E480079182807DC7C4840793C287C
:101B400003DC7A4880793C2807DD0020774908804B
:101B50008870C87008714871887170472DE9FC5F02
:101B60000026B246B3460027B04600240025A14611
:101B7000002001902C216E48006800F094FB824602
:101B8000BAF10C0F7ED16BA16948006803F077FEB3
:101B900007466AA16648006803F071FE8046A8EB1C
:101BA000070B00BF03E0B85D80EA0909761C5E45BB
:101BB000F9D31022694608F1010003F028FEC0B2F3
:101BC0000190019848457DD102215948006800F0F4
:101BD00053FB04466078412875D10020584908809D
:101BE00001215348006800F047FB04460622611CAF
:101BF000544803F09CFE00205249887103214C4850
:101C0000006800F039FB04460922611C4E4803F0CD
:101C10008EFE00204C49487204214548006800F0BF
:101C20002BFB04460122611C484803F080FE002083
:101C30004649487005213E48006800F01DFB0446F7
:101C40000A22611C424803F072FE0020404988725B
:101C500006213748006800F00FFB04460122611C92
:101C60003C4803F064FE00203A49487007213048A0
:101C7000006800F001FB044608212D48006800F0D0
:101C8000FBFA00E083E00546281B421E611C324837
:101C900003F04DFE0021281B401E2F4A115408213D
:101CA0002348006800F0E8FA04460921204800684B
:101CB00000F0E2FA0546281B421E611C274803F08B
:101CC00036FE01E05EE019E00021281B401E234A99
:101CD000115409211648006800F0CEFA0446062285
:101CE000611C1F4803F023FE00201D49887101205C
:101CF0001C4908701CA003F00BFC4BE000201949A4
:101D000008701CA003F004FC0D480088401C0C491E
:101D100008803FE000480040000C01409C0000208B
:101D2000A0000020980000209C210020E00D002051
:101D3000A4000020474E524D430000002A0000003E
:101D400000010020A8000020F7210020B60000209C
:101D5000EC210020B8000020012200200B220020EE
:101D6000AF000020E900002041B6A8CEBBD3D0D000
:101D7000A70D0A00475053CEB4B3C9B9A6B6A8CE32
:101D8000BB0D0A00BCA003F0C3FBBDE8FC9FBEA0D6
:101D900003F0BEFB00BFF8E72DE9F04F87B08246A5
:101DA0004FF0000B00BF00BF00BF00200490059063
:101DB000DAE902100C4605460E46074600BF28E049
:101DC0000AEBCB0103C932463B46CDE9020107F0DD
:101DD0002FFD02D20AEBCB00C0C80AEBCB0103C92E
:101DE00022462B46CDE9020107F05CFE02D20AEB47
:101DF000CB0030C80AEBCB0003C8CDE90201DDE916
:101E0000042307F03DFACDE904010BF1010000F0D5
:101E1000FF0BBBF10A0FD3DB22462B46DDE90401A1
:101E200007F068FF32463B46CDE9000107F062FF4C
:101E30000022994BCDE9020107F0DEFA804689467F
:101E40004046494607B0BDE8F08F70B506460C46DF
:101E500015469248FFF7A0FFC6E900019048FFF73A
:101E60009BFFC4E900018F48FFF796FFC5E9000119
:101E700070BD00B587B08C4880798B4949798A4A12
:101E80001279894BDB78CDE90032CDE90210864822
:101E90008378028885A1C01D03F046FB8B4800684B
:101EA00006908B4803C8CDE904018A480169C068DF
:101EB000884A5268874B1B68CDE90032CDE90201A0
:101EC000854B794AD21D85A1914803F02DFB91499C
:101ED00008700846017890A003F01AFB012094498D
:101EE000087007B000BD10B540F22551914802F0CE
:101EF00087F801287ED18F4802F002F8C1B28E48DF
:101F000002880088401C8C4B18808C4881541846ED
:101F10000088801E8949085C0D2805D01846008875
:101F2000401E085C0A285DD101208549087082485E
:101F3000008884490968401A02284FD97F4881499E
:101F4000096808448049814A127841F8220000213A
:101F500079480088801E794A11547B487B4909786A
:101F600050F821000078242833D177487749097840
:101F700050F82100407847282BD1734873490978DD
:101F800050F8210080784E2823D16F486F49097896
:101F900050F82100C07852281BD16B486B49097852
:101FA00050F8210000794D2813D167486749097816
:101FB00050F82100407943280BD1634863490978E0
:101FC00050F82100624908600846006808B1FFF730
:101FD000C5FD5E480078401C5C4908705648008882
:101FE000584908605448008841F28831884205DA2F
:101FF000564800E017E0007814280FDB0020514914
:102000000860524908704C490880002404E0002010
:102010004D4941F82400641C142CF8D340F225519A
:10202000444802F017F80821424801F0D3FF012884
:1020300006D108213F4801F0DAFF3E4801F060FF79
:1020400010BD00213F4A1160404A11703A4A118088
:10205000002003E00021394A1154401C41F288312C
:102060008842F7D3002004E00021374A42F82010CC
:10207000401C1428F8D37047CAFDBEDDD0A3D1E9B7
:10208000BACDCAA7B0DC0000C3BBD3D03132B8F69A
:10209000B6BABAC50D0A0000000020406822002030
:1020A00018220020B8220020E00D002025303464E2
:1020B0002D253032642D2530326420253032643AAB
:1020C000253032643A253032640000009000002050
:1020D0004000002008230020B63E002054696D65B2
:1020E0003D25732D4C6F673D25732C253034642CB2
:1020F000253033642C253033642C253033642C2573
:102100003033662C73513A202530326400000000D1
:1021100078050020F0000020B4F2B0FCCAFDBEDD5E
:10212000C9CFB4ABB4F3D0A125640D0A0000000000
:10213000550000200048004098000020120E0020AA
:10214000EA0000209C0000209C210020A00000202C
:10215000A400002008B50121042001F02DFD4FF45A
:102160000040ADF8000010208DF8030003208DF82A
:1021700002006946F94801F063FA0120F849086055
:1021800040F2DC5001F09FF808BD2DE9F041074610
:102190000E460025002414E0F248005D31788842A4
:1021A00007D1F0490819314603F069FB054605B12E
:1021B0000CE041F28830844200D005B106E0601C9A
:1021C00084B2E848C01E0088A042E5DC00BF284673
:1021D000BDE8F0810021E34AD21E1180002004E016
:1021E0000022E0490A54411C88B241F288318842F9
:1021F000F6DB70472DE9F04206460F4614464FF0D5
:1022000000090025FFF7E6FFFF2E0AD200BFD648DF
:10221000008800F040000028F9D0D349091D0E8045
:1022200005E0304600F0E6FFD0A000F0E3FFEFB19C
:10223000E4B10FE03946CB48FFF7A7FF054605B1EB
:102240000DE041F28830804500D005B107E0012063
:1022500001F039F8601E041E01D0002DEAD000BF45
:102260000CB94FF0FF390DB14FF00009322001F0E9
:102270002AF84846BDE8F08210B502460B46002415
:1022800000210AE0505C2C2805D1601CC4B29C429D
:1022900001D1501810BD481C81B24FF6FF70814229
:1022A000F0DB1046F6E710B502460B460020002191
:1022B0000AE0545C9C4202D1441CE0B202E0545C4F
:1022C00004B910BD4C1CA1B2F3E72DE9FF4F8DB04E
:1022D000834615461E4600200390029081460190D9
:1022E000824658460E9903F0CAFA074627B94FF0BE
:1022F000FF3011B0BDE8F08F2C215846FFF7D3FF17
:102300000390039801282FD10E9803F0CAFA824651
:1023100001213846FFF7B0FF0446E01BA0EB0A009E
:1023200002900BEB0A010AA8029A03F000FB0021BD
:102330000AAA029811541DB10AA803F05BFA28609A
:10234000601C03F0AEFA81464A46611C07A803F000
:10235000EEFA002007A901F809001EB107A803F052
:1023600049FA30600020C4E7039802284AD30E9847
:1023700003F097FA824601213846FFF77DFF0446B5
:10238000E01BA0EB0A0002900BEB0A010AA8029ADC
:1023900003F0CDFA00210AAA029811541DB10AA82F
:1023A00003F028FA286002213846FFF765FF8046CF
:1023B000A8EB0400A0F101094A46611C07A803F03C
:1023C000B6FA00200AA901F809001EB107A803F017
:1023D00011FA306008F1010003F063FA019008F18E
:1023E000010104A8019A03F0A2FA002004A901F84F
:1023F00009001A9820B104A803F0FCF91A990860A2
:10240000002076E74FF0FF3073E7F8B5002541F282
:10241000883257A157A0FFF7EDFE044634B157A00C
:1024200003F076F863205A49086012E059A14D483C
:10243000FFF7ABFE064600200346554A57A1009021
:102440003046FFF742FF20B95148016855A003F01C
:102450005FF84FF47A7257A158A0FFF7CBFE0446FD
:1024600014B14FF0FF30F8BD52A13E48FFF78DFE8A
:102470000546287A312807D153A003F049F80120F6
:10248000564908700020EEE7002054490870401EAD
:10249000E9E770B500254FF47A7235A150A0FFF737
:1024A000A9FE04461CB951A003F032F802E053A083
:1024B00003F02EF84FF47A722DA154A0FFF79AFE84
:1024C00004461CB954A003F023F802E057A003F01F
:1024D0001FF84FF47A7226A159A0FFF78BFE04462D
:1024E0001CB95BA003F014F802E060A003F010F840
:1024F000002507E0681CC5B263A003F009F8032DAE
:1025000000DB07E041F2883219A164A0FFF772FEF8
:10251000041EEFD100BF14B963A002F0F9FF41F22D
:10252000883213A165A0FFF765FE04461CB96AA0B6
:1025300002F0EEFF02E06DA002F0EAFF41F2883205
:102540000BA16FA0FFF756FE044634B970A002F04D
:10255000DFFF012021490870EAE0E1E000080140C6
:10256000BC0121422B230020003801400D0A00004D
:102570004F4B000041542B4353510000B2E9D1AFFF
:10258000D0C5BAC5D6CAC1BFCAA7B0DC0D0A000003
:10259000900000202B4353513A0000002B4353512D
:1025A0003A200000D0C5BAC5D6CAC1BFA3BA2564B7
:1025B0000D0A00002B43474154543A0041542B4329
:1025C000474154543F000000B8BDD7C5475052534F
:1025D000CDF8C2E7B3C9B9A60D0A00000701002073
:1025E00041542B434950434C4F534500B9D8B1D5C2
:1025F000C1ACBDD3B3C9B9A60D0A0000B9D8B1D5D5
:10260000C1ACBDD3CAA7B0DC0D0A000041542B43B6
:102610004950534855540000B9D8B1D5D2C6B6AFC9
:10262000B3A1BEB0B3C9B9A60D0A0000B9D8B1D5DF
:10263000D2C6B6AFB3A1BEB0CAA7B0DC0D0A0000C7
:1026400041542B4347434C4153533D224222000007
:10265000C9E8D6C347505253D2C6B6AFCCA8C0E0E3
:10266000D0CDCEAA42B3C9B9A60D0A00C9E8D6C3D7
:1026700047505253D2C6B6AFCCA8C0E0D0CDCEAAF8
:1026800042CAA7B0DC0D0A00B8BDD7C547505253A7
:10269000D2B5CEF1CAA7B0DC0D0A000041542B43DD
:1026A000474154543D310000B8BDD7C5475052533F
:1026B000D2B5CEF1B3C9B9A60D0A000041542B43DF
:1026C0004950435347503D312C224950222C22433C
:1026D0004D4E455422000000C9E8D6C3504450B2C4
:1026E000CECAFDB3C9B9A60D0A000000C9E8D6C319
:1026F000504450B2CECAFDCAA7B0DC0D0A0000009B
:1027000041542B434950484541443D31200000008D
:10271000BCA4BBEE504450B3C9B9A60D0A000000DA
:10272000EAA002F0F5FE0020EC490870401E70BDE2
:102730000020FCE770B541F28832AFF2CC11E8A07E
:10274000FFF758FD05463DB1E7A002F0E1FEFEF7B8
:10275000FFFE0120E9498870AFF2EC11E748C01C88
:10276000FFF713FD04465CB1A4F113010F22E44806
:1027700003F0DDF80020E249C873E2A002F0C8FED1
:1027800070BD70B5002600240020E24908700120C9
:10279000E1490870FFF755FCE0484068401CDF49FC
:1027A00048600120DB49087000BF10E02146641C2E
:1027B000DBA002F0ADFE322C09D3E0A002F0A8FEAF
:1027C000FEF7C6FE0120CD49887000BFFEE74FF43A
:1027D000FA72AFF26421E3A0FFF70CFD051EE5D10C
:1027E0001DB1E2A002F094FE88E0E6A002F090FEA7
:1027F00041F28832AFF28821E8A0FFF7FBFC0546E2
:102800001DB9E8A002F084FE02E0EAA002F080FE1A
:1028100041F28832AFF2A821EAA0FFF7EBFC0546AF
:102820001DB9EBA002F074FE02E0F0A002F070FE11
:10283000FFF780FF0220B7490870002410E021460E
:10284000641CF1A002F064FE052C09D3F5A002F08F
:102850005FFEFEF77DFE0120A849887000BFFEE7FD
:1028600040F6B832F8A1FAA0FFF7C4FC051EE6D185
:102870001DB9FAA002F04CFE02E0FCA002F048FEF6
:1028800000240320A34908702AE040F6B832FBA1D7
:10289000FCA0FFF7AFFCF9A19848C01CFFF775FC3E
:1028A0000646707A312802D0707A352803D1F8A014
:1028B00002F02EFE15E0641C282C09D3F8A002F0CB
:1028C00027FEFEF745FE01208C49887000BFFEE719
:1028D0002146F9A002F01CFE40F2DC5000F0F3FCAF
:1028E000D3E700BF04208B490870FFF7D2FDFFF744
:1028F0008CFDFFF72FFC05208649087070BD70B570
:1029000041F28832AFF29831F1A0FFF773FC05462F
:102910001DB9F1A002F0FCFD07E0F5A002F0F8FD02
:10292000FEF716FE012075498870F7A17348C01C98
:10293000FFF72BFC04466CB1142221467048323854
:1029400002F0F5FF00206E4932390875EFA002F061
:10295000DFFD07E0E6A002F0DBFDFEF7F9FD012058
:102960006649887070BD08B50121082001F024F97E
:102970004FF40040ADF8000010208DF80300032054
:102980008DF802006946E74800F05AFE0120E6494A
:1029900008608020ADF8000028208DF80300032097
:1029A0008DF802006946DF4800F04AFE0020DF494A
:1029B000C1F81C0108BD70B5FA2000F084FC2DE0C0
:1029C0000020D94908604FF4FA7000F07CFC012027
:1029D000D649C1F8BC0140F2DC5000F074FC002084
:1029E000D149086040F2DC5000F06DFC002408E0A2
:1029F0002146621CD4B2CEA002F08AFD0A2C00DB74
:102A000008E04FF4FA72AFF2984156A0FFF7F2FBDC
:102A1000051EEDD100BF0A2C00DA00E0D0E700BFB0
:102A200070BD10B59AB0C74AC7A101A802F07CFDDD
:102A300041F28832CAA101A8FFF7DCFB04461CB9A9
:102A4000CAA002F065FD02E0CDA002F061FD2046C3
:102A50001AB010BD10B540F6B832C1A1CDA0FFF735
:102A6000C9FB041E03D1CFA002F052FD06E0FFF720
:102A7000D8FF18B1FFF70DFDFFF7D3FF204610BDBB
:102A800070B505460120CE4908700020CD49087078
:102A9000FFF7BBFCFFF7DEFF41F28832CAA1CBA0F3
:102AA000FFF7A8FB80B9294618A000F0A3FB0A2075
:102AB00000F009FC41F28832C7A11A20FFF79AFB07
:102AC00018B9FFF787FB8BE19DE18EE1BCA4BBEE5B
:102AD000504450CAA7B0DC0D0A00000007010020D6
:102AE00041542B47534E0000B2E9D1AF494D4549FF
:102AF000BAC5CAA7B0DC0D0A0000000028230020D8
:102B0000B63E0020494D4549BAC53A2025730D0A05
:102B10000000000006010020020100200823002020
:102B2000D5FDD4DAB3F5CABCBBAF4154D6B8C1EEBB
:102B3000BCAF60606025640D0A0000000D0AB3F5AB
:102B4000CABCBBAF4154D6B8C1EEBCAFCAA7B0DC5B
:102B5000A3ACD5FDD4DAD6D8C6F4B5A5C6ACBBFABD
:102B60000D0A000041540D0A00000000B3F5CABC74
:102B7000BBAF4154D6B8C1EEBCAFCAA7B0DC0D0A9A
:102B800000000000B3F5CABCBBAF4154D6B8C1EEDB
:102B9000BCAFB3C9B9A60D0A0000000041544530CE
:102BA00000000000B9D8B1D5BBD8CFD4B3C9B9A6FD
:102BB0000D0A0000B9D8B1D5BBD8CFD4CAA7B0DCB4
:102BC0000D0A000041542B434D45453D32000000A5
:102BD000B4F2BFAAC9CFB1A8CFEACFB8B4EDCEF353
:102BE000D0C5CFA2B3C9B9A60D0A0000B4F2BFAADE
:102BF000C9CFB1A8CFEACFB8B4EDCEF3D0C5CFA23C
:102C0000CAA7B0DC0D0A0000D5FDD4DAB2E9D1AF15
:102C100053494DBFA8D7B4CCAC60606025640D0AA1
:102C2000000000000D0ABCECB2E253494DBFA8CA37
:102C3000A7B0DCA3ACD5FDD4DAD6D8C6F4B5A5C60A
:102C4000ACBBFA0D0A000000524541445900000097
:102C500041542B4350494E3F00000000D2D1B2E511
:102C6000C8EB53494DBFA80D0A000000CEB4B2E531
:102C7000C8EB53494DBFA80D0A0000002B43524535
:102C8000473A000041542B435245473F00000000A3
:102C9000B3C9B9A6D7A2B2E1CDF8C2E70D0A0000C8
:102CA000D7A2B2E1CDF8C2E7CAA7B0DC2CD7BCB13D
:102CB000B8D6D8C6F40D0A00D5FDD4DAD7A2B2E151
:102CC000CDF8C2E72E2E2E2E25640D0A000000003E
:102CD00041542B474D520000B2E9D1AFC4A3BFE924
:102CE000C8EDBCFEB0E6B1BEB3C9B9A60D0A00007E
:102CF000B2E9D1AFC4A3BFE9C8EDBCFEB0E6B1BE36
:102D0000CAA7B0DC0D0A000056000000C4A3BFE94A
:102D1000C8EDBCFEB0E6B1BE3A20257320200D0AF6
:102D200000000000000C0140BC81214200802142D3
:102D3000D5FDD4DABFAABBFAB2E2CAD4606060257E
:102D4000640D0A00D29F000841542B43495053544C
:102D50004152543D22544350222C25730000000060
:102D6000434F4E4E454354204F4B0000BDA8C1A2D7
:102D7000544350B5C4C1ACBDD3B3C9B9A60D0A0004
:102D8000BDA8C1A2544350B5C4C1ACBDD3CAA7B0FD
:102D9000DC0D0A0041542B434950535441545553C0
:102DA00000000000B5B1C7B0C1ACBDD3D7B4CCAC46
:102DB0003A434F4E4E454354204F4B0D0A000000FE
:102DC000F1040020F20400203E00000041542B4397
:102DD000495053454E44000053454E44204F4B004C
:102DE0007BA002F095FB00241AE001207B490870CB
:102DF0007BA002F08DFB4FF0FF347C48C068401C84
:102E00007A49C8600CE0002211461B20FFF7F2F956
:102E100001207249087076A002F07AFB4FF0FF346F
:102E200000207849087070BD00B59DB0642104A8E9
:102E300002F056FD744803686C4800696B49C96824
:102E40006A4A5268CDE90203CDE900216748036868
:102E50006E4A6FA104A802F067FB04A8FFF710FEFA
:102E60001DB000BD10B540F6B83273A173A0FFF7D6
:102E7000C1F904461CB175A002F04AFB02E079A03A
:102E800002F046FB41F288327CA17EA0FFF7B2F946
:102E9000044614B17EA002F03BFB10BD2DE9F041C9
:102EA00001218048FFF7E8F9074602217D48FFF736
:102EB000E3F9054603217B48FFF7DEF98046E81B6E
:102EC00086B2002405E0601C395C77480155601C1F
:102ED00084B2701EA042F6DC00217348015505F053
:102EE00045FB714A143AC2E90C01A8EB050086B211
:102EF000002406E0601C285C6B4914390855601CEE
:102F000084B2701EA042F5DC0020674914390855D0
:102F1000084605F02BFB644A143AC2E90A01002076
:102F2000BDE8F0812DE9F04105460026C82755B3DC
:102F30004FB322E0002417E05A48005D2978884208
:102F40000AD158490819294602F099FC06461EB1D3
:102F5000322000F0B8F90CE041F28830844200D011
:102F600006B106E0601C84B24E48C01E0088A04234
:102F7000E2DC00BF642000F0A6F9781E80B2071ED4
:102F800001D0002ED6D03046BDE8F08110B5002427
:102F900012E02146621CD4B244A002F0B9FA0A2C15
:102FA0000ADB49A002F0B4FAFEF7D2FA01203D494B
:102FB000C91E887000BFFEE74FF4FA72AFF25821C5
:102FC000AFF26040FFF716F90028E2D110BD000013
:102FD000504F5354B3C9B9A60D0A0000F2040020A3
:102FE000504F5354CAA7B0DC0D0A0000082300203C
:102FF000504F5354CAA7B0DCA3ACC8A1CFFBB7A2B3
:10300000CBCD0000F104002090000020B63E00204F
:10301000494D4549203A2573202C253034642C2510
:103020003033642C253033642C253033642C7351B9
:103030003A202530326400007777770041542B43E3
:103040004C42534346473D302C330000B2E9D1AFE8
:103050004C4253C4ACC8CFB5D8D6B7CAA7B0DC0D64
:103060000A000000B2E9D1AF4C4253C4ACC8CFB59E
:10307000D8D6B7B3C9B9A60D0A0000002B434C42FD
:10308000533A000041542B434C42533D312C310004
:10309000BBF1C8A1BEADCEB3B6C8CAA7B0DC0D0A9D
:1030A000000000002B230020EC3E00204154BCEC2B
:1030B000B2E9C4A3BFE9CAC7B7F1CBC0BBFA60602D
:1030C0006025640D0A0000000D0AC4A3BFE9CEDE2E
:1030D000CFECD3A6A3ACD7BCB1B8D6D8C6F40D0AF2
:1030E0000000000010B586B004460121042000F065
:1030F00063FD0121880300F05FFD504800F0C0FD32
:103100004FF40070ADF8100003208DF81200182065
:103110008DF8130004A94A4800F092FA4FF4806039
:10312000ADF8100048208DF8130004A9444800F0C1
:1031300087FA00940020ADF80400ADF80600ADF861
:103140000800ADF80C000C20ADF80A0069463B48B9
:1031500000F0D9FD0121394800F061FE012240F262
:103160002551364800F067FE01226021334800F007
:1031700062FE002240F22771304800F05CFE2520FC
:103180008DF8140000208DF815008DF81600012030
:103190008DF8170005A800F08AF906B010BD10B52B
:1031A00040F22551254800F02BFFA8B140F22551EF
:1031B000224800F04FFF214800F0A2FEC4B221488F
:1031C000008841F28831884206DA1E490888411C8D
:1031D0001C4A1180D11C0C540821184800F0FAFE3A
:1031E000012806D10821154800F001FF134800F01E
:1031F00087FE10BD0FB438B505A800901248009A9C
:10320000049902F073F9002000900F4802F049FB86
:1032100085B200240DE000BF4021084800F0DAFE2E
:103220000028F9D00848015D044800F065FE601CE4
:1032300084B2AC42EFDB38BC5DF814FB00380140CF
:103240000008014028230020B336002010B56FF09D
:10325000040000F076F92E4800682E49B0FBF1F02A
:103260002D4908700846007800EB4001C1EBC01002
:103270004FF6FF7101EAC0002849088010BD0146E1
:10328000254A12784A434FF0E0235A6100229A619E
:103290001A46126942F001021A6100BF4FF0E022A3
:1032A000106900F001021AB100F48032002AF5D052
:1032B0004FF0E022126922F001024FF0E0231A6180
:1032C00000229A6170470146144A12884A434FF01F
:1032D000E0235A6100229A611A46126942F0010203
:1032E0001A6100BF4FF0E022106900F001021AB12C
:1032F00000F48032002AF5D04FF0E022126922F06B
:1033000001024FF0E0231A6100229A617047000029
:103310000000002000127A00F4040020F6040020CF
:10332000014600BF704700BF4A4A128802F04002BF
:10333000002AF9D0C2B2474B1B1D1A80704710B546
:1033400086B004460121480400F043FC012104201A
:1033500000F032FC0420ADF8140003208DF81600B4
:1033600018208DF8170005A93B4800F069F90820DE
:10337000ADF8140004208DF8170005A9364800F0B8
:103380005FF926208DF8000003208DF801008DF8EC
:10339000020001208DF80300684600F088F80194CF
:1033A0000020ADF80800ADF80A00ADF80C00ADF84B
:1033B00010000C20ADF80E0001A9264800F0A3FC77
:1033C000012240F22551234800F035FD012121481A
:1033D00000F025FD06B010BD10B540F225511D4886
:1033E00000F00EFE10B31B4800F08AFDC4B21B486B
:1033F000008800F40040C8B91848008800F48040F4
:1034000060B10A2C03D000201449088020E0134842
:10341000008840F400401149088019E00D2C06D1C5
:103420000E48008840F480400C49088010E00B48AA
:103430000088C0F30D000A490C5408480088401C5D
:103440000649088008460088C72801DD002008805A
:1034500010BD00000044004000080140FC040020B2
:103460003C4000200948804709480047FEE7FEE746
:10347000FEE7FEE7FEE7FEE7FEE7FEE7FEE7FEE724
:1034800004480549054A064B70470000A30500089B
:10349000310100086841002068470020684300208F
:1034A0006843002031490143314A1160704770B5CB
:1034B000002100230F22C47804B32D4C246804F4A7
:1034C000E064C4F5E064210AC1F10403CA40447811
:1034D00004FA03F18478144021430901254C06784D
:1034E000A155047804F01F050124AC4005786D1146
:1034F000AD0005F1E025C5F8004109E0047804F0CD
:103500001F050124AC401C4D0678761145F8264075
:1035100070BD1A4A0A400243154B1B1F1A607047C0
:1035200039B1134A121D12680243114B1B1D1A6058
:1035300006E00F4A121D126882430D4B1B1D1A60D4
:103540007047042808D14FF0E021096941F00401D7
:103550004FF0E022116107E04FF0E021096921F00E
:1035600004014FF0E0221161704700000000FA05ED
:103570000CED00E000E400E080E100E080FFFF1FD0
:1035800010B50446CC48844208D10121042000F043
:103590002DFB0021042000F029FB46E0C7488442AF
:1035A00008D10121082000F021FB0021082000F0B3
:1035B0001DFB3AE0C248844208D10121102000F0EE
:1035C00015FB0021102000F011FB2EE0BD488442C5
:1035D00008D10121202000F009FB0021202000F06B
:1035E00005FB22E0B848844208D10121402000F0C8
:1035F000FDFA0021402000F0F9FA16E0B3488442B9
:1036000008D10121802000F0F1FA0021802000F093
:10361000EDFA0AE0AE48844207D10121801500F09E
:10362000E5FA0021A01500F0E1FA10BD10B5012166
:10363000084600F0DBFA0021012000F0D7FA10BDA7
:103640002DE9F04102460025002600200023002439
:10365000002791F803C00CF00F0591F803C00CF09F
:10366000100CBCF1000F03D091F802C04CEA050524
:1036700091F800C0BCF1000F31D0146800202BE09D
:103680004FF0010C0CFA00F3B1F800C00CEA03068D
:103690009E4220D183004FF00F0C0CFA03F7BC437D
:1036A00005FA03FC4CEA040491F803C0BCF1280FAE
:1036B00006D14FF0010C0CFA00FCC2F814C00AE06D
:1036C00091F803C0BCF1480F05D14FF0010C0CFA82
:1036D00000FCC2F810C0401C0828D1D31460B1F817
:1036E00000C0BCF1FF0F34DD546800202EE000F173
:1036F000080C4FF0010808FA0CF3B1F800C00CEA0E
:1037000003069E4221D183004FF00F0C0CFA03F701
:10371000BC4305FA03FC4CEA040491F803C0BCF175
:10372000280F05D100F1080C08FA0CF8C2F8148033
:1037300091F803C0BCF1480F07D100F1080C4FF01D
:10374000010808FA0CF8C2F81080401C0828CED3F3
:103750005460BDE8F0814FF6FF7101800221817055
:103760000421C17070470246002093680B400BB1E2
:10377000012000E0002070470146886880B2704751
:1037800002460020D3680B400BB1012000E000206E
:1037900070470146C86880B2704701617047416157
:1037A00070470AB1016100E041617047C160704734
:1037B0004FF480320A438261816182618269826949
:1037C000704702460020434B18684FF6807318403C
:1037D00040EA021008433F4B186070473E49C861F9
:1037E0007047F0B50A46002300240021002500F0B0
:1037F0000046B6F1004F02D1364EF16901E0354E78
:103800007168C0F3034583B200F44016B6F5401F5B
:1038100008D121F070612F4E766826F070662D4F2A
:103820007E6012E000F48016B6F5801F06D10326F4
:1038300006FA05F4A14341F0706106E0460D360139
:1038400003FA06F6B14341F0706122B1460D36012C
:1038500003FA06F6314300F00046B6F1004F02D1FC
:103860001C4EF16101E01B4E7160F0BD30B50022CD
:103870008B071C0F0F2303FA04F2164B08338C102E
:1038800053F824309343134C08348D1044F82530FA
:1038900023468C1053F824308C07240F00FA04F4CC
:1038A00023430C4C08348D1044F8253030BD0A49B0
:1038B000DC3108607047000000080140000C014046
:1038C000001001400014014000180140001C01409C
:1038D000002001400000014000002042DF48006855
:1038E00040F00100DD49086008464068DC490840B6
:1038F000DA49486008460068DA490840D749086054
:103900000846006820F4802008600846406820F4DB
:10391000FE0048604FF41F0088607047CF49096877
:1039200021F48031CD4A11601146096821F48021CB
:103930001160B0F5803F03D0B0F5802F0ED106E0C6
:10394000C649096841F48031C44A116007E0C3499F
:10395000096841F4A021C14A116000E000BF00BF26
:10396000704710B501460022002300204A11012AA9
:1039700002D1BA4C236806E0022A02D1B74C236A6E
:1039800001E0B64C636A01F01F02012494401C4020
:103990000CB1012000E0002010BD38B500200090DF
:1039A0000024002500BF3120FFF7DBFF054600980B
:1039B000401C00900098B0F5A06F01D0002DF2D00F
:1039C0003120FFF7CEFF08B1012400E0002420469B
:1039D00038BD01460020A14A106820F0F80040EAF6
:1039E000C10010607047A04908607047024600207F
:1039F0009A4B586820F47C1042EA01031843974B15
:103A00005860704798490866704701460020934AFD
:103A1000506820F003000843506070478F484068AA
:103A200000F00C007047014600208C4A506820F0DE
:103A3000F00008435060704701460020874A5068F4
:103A400020F4E06008435060704701460020834A3C
:103A5000506820F4605040EAC1005060704729B1BE
:103A60007E4A527A02437D4B5A7204E07B4A527A74
:103A700082437A4B5A7270477B49D831086070474D
:103A800001460020754A506820F4404008435060C9
:103A900070470021714A20321170704A82F820105C
:103AA000012802D004280AD104E001216B4A203207
:103AB000117005E00521694A2032117000E000BF55
:103AC00000BF70476949086070476449096A01434B
:103AD000624A11627047654944390860704730B5E1
:103AE00000210022002400235C4D6D6805F00C01CC
:103AF00021B1042905D0082923D105E05C4D0560DA
:103B000022E05B4D05601FE0544D6D6805F47012B6
:103B1000524D6D6805F48034022505EB92421CB9C4
:103B2000544D554305600BE04C4D6D6805F4003570
:103B30001DB1504D5543056002E04D4D55430560A4
:103B400002E04B4D056000BF00BF444D6D6805F0BD
:103B5000F0010909484D6B5C0568DD4045603F4D4B
:103B60006D6805F4E061090A434D6B5C4568DD4012
:103B700085603A4D6D6805F46051C90A3E4D6B5C35
:103B80004568DD40C560354D6D6805F44041890BE1
:103B90003A4D6B5CC568B5FBF3F5056130BD29B1E5
:103BA0002E4A526902432D4B5A6104E02B4A526956
:103BB00082432A4B5A61704729B1284A92690243CD
:103BC000264B9A6104E0254A92698243234B9A610D
:103BD000704729B1214AD2690243204BDA6104E0DF
:103BE0001E4AD26982431D4BDA61704729B11B4AD4
:103BF000D2680243194BDA6004E0184AD268824363
:103C0000164BDA60704729B1144A12690243134B0C
:103C10001A6104E0114A12698243104B1A6170471D
:103C200012494039086070470F49C86470470B4912
:103C3000C87170470948406A40F08070074948627F
:103C4000704701460020054A92680A400AB10120E7
:103C500000E0002070470149887270470010024060
:103C60000000FFF8FFFFF6FE0000424280044242DF
:103C700000127A0000093D00FE0400200E0500201D
:103C800010B50446FB48844209D101218803FFF79F
:103C9000ADFF00214FF48040FFF7A8FF32E0F64867
:103CA000844209D101214804FFF7ADFF00214FF400
:103CB0000030FFF7A8FF25E0F048844209D1012138
:103CC0008804FFF7A0FF00214FF48020FFF79BFF3F
:103CD00018E0EB48844209D10121C804FFF793FFA3
:103CE00000214FF40020FFF78EFF0BE0E5488442EF
:103CF00008D101210805FFF786FF00214FF480104D
:103D0000FFF781FF10BD2DE9F04786B005460E464E
:103D10000024A24600BFA1460027B08900B100BF21
:103D20002F462C8A4CF6FF700440F08804432C8206
:103D3000AC894EF6F3100440B0883189084371898C
:103D400008430443AC81AC8A4FF6FF400440B0897D
:103D50000443AC8201A8FFF7C2FEC648874202D1E5
:103D6000DDF810A001E0DDF80CA0A88900F4004007
:103D700040B10AEBCA0000EB0A1031684900B0FB01
:103D8000F1F807E00AEBCA0000EB0A10316889007D
:103D9000B0FBF1F86420B8FBF0F0040120096421C5
:103DA00001FB1089A88900F4004040B1322000EBEB
:103DB000C900B0FBF1F000F00700044308E0322036
:103DC00000EB09106421B0FBF1F000F00F00044398
:103DD0002C8106B0BDE8F0874FF416510160002138
:103DE0008180C18001810C21418100218181704746
:103DF00010B502460020108A4FF2FF0318400B88CE
:103E00004C8823438C882343CC8823431843108257
:103E100010BD0021018041808180C180704721B1A7
:103E2000828942F40052828104E082894DF6FF7358
:103E30001A4082817047F0B5034600240026002511
:103E4000002040F66A17B94200D100BF1846C1F3FE
:103E5000421401F01F06012707FA06F5012C01D1D3
:103E60000C3004E0022C01D1103000E014301AB103
:103E700007682F43076002E00768AF430760F0BDA3
:103E80001AB1838A0B43838202E0838A8B43838245
:103E90007047028A4FF6F0731A400282028A0A4380
:103EA0000282704782894FF2FF731A4082818289B1
:103EB0000A438281704721B1828942F002028281E5
:103EC00004E082894FF6FD731A4082817047028AAE
:103ED0004FF6DF731A400282028A0A430282704759
:103EE00021B1028A42F48042028204E0028A4BF647
:103EF000FF731A4002827047C1F308028280704744
:103F000001468888C0F308007047818941F00101AB
:103F100081817047028BD2B20283028B42EA012276
:103F200002837047028B02F47F420283028B0A43B2
:103F30000283704721B1828A42F02002828204E02B
:103F4000828A4FF6DF731A408282704721B1828ADB
:103F500042F01002828204E0828A4FF6EF731A4028
:103F60008282704721B1828A42F00802828204E094
:103F7000828A4FF6F7731A408282704721B1828994
:103F800042F40042828103E08289C2F30E02828100
:103F9000704721B1828A42F40062828204E0828A00
:103FA0004FF2FF731A4082827047828A4FF6FB738A
:103FB0001A408282828A0A438282704721B1828AB1
:103FC00042F00202828204E0828A4FF6FD731A40B8
:103FD0008282704702460020B1F5007F00D100BF09
:103FE00013880B400BB1012000E00020704701F462
:103FF0000072B2F5007F00D100BFCA430280704753
:1040000070B50246002400230025002040F66A1601
:10401000B14200D100BFC1F3421501F01F030126D8
:1040200006FA03F3012D02D19689334006E0022DF2
:1040300002D1168A334001E0968A33400C120126E1
:1040400006FA04F41688344013B10CB1012000E0E4
:10405000002070BD10B50022002340F66A14A14272
:1040600000D100BF0A1201249440A3B2DC430480B3
:1040700010BD0000003801400044004000480040EE
:10408000004C00400050004010B50446FE488442F9
:1040900008D10121C014FFF7A9FD0021E014FFF7AA
:1040A000A5FDC4E0B4F1804F08D101210846FFF717
:1040B000AAFD00210120FFF7A6FDB8E0F3488442E5
:1040C00008D101210220FFF79EFD00210220FFF709
:1040D0009AFDACE0EE48844208D101210420FFF7AC
:1040E00092FD00210420FFF78EFDA0E0E948844204
:1040F00008D101210820FFF786FD00210820FFF7E5
:1041000082FD94E0E448844208D101211020FFF7A9
:104110007AFD00211020FFF776FD88E0DF48844219
:1041200008D101212020FFF76EFD00212020FFF79C
:104130006AFD7CE0DA48844208D101214014FFF78F
:1041400055FD00216014FFF751FD70E0D548844211
:1041500009D10121C804FFF749FD00214FF40020D7
:10416000FFF744FD63E0D048844209D101210805EE
:10417000FFF73CFD00214FF48010FFF737FD56E0BC
:10418000CA48844209D101214805FFF72FFD0021CB
:104190004FF40010FFF72AFD49E0C548844208D1DA
:1041A00001214020FFF72FFD00214020FFF72BFDCC
:1041B0003DE0C048844208D101218020FFF723FD63
:1041C00000218020FFF71FFD31E0BB48844208D169
:1041D00001218015FFF717FD0021A015FFF713FD42
:1041E00025E0B648844209D101210804FFF7FEFC0E
:1041F00000214FF48030FFF7F9FC18E0B04884420A
:1042000009D101214804FFF7F1FC00214FF40030EF
:10421000FFF7ECFC0BE0AB48844208D10121880495
:10422000FFF7E4FC00214FF48020FFF7DFFC10BD16
:1042300000220288944B98420ED0994B98420BD0A2
:10424000B0F1804F08D0914B984205D0904B9842E6
:1042500002D0904B984204D14FF68F731A404B888E
:104260001A438D4B984207D08C4B984204D04FF69E
:10427000FF431A40CB881A4302808B8883850B88C2
:104280000385814B98420BD0854B984208D08B4BCD
:10429000984205D08A4B984202D08A4B984201D16D
:1042A0000B7A038601238382704770B500240022B5
:1042B0000023058C4FF6FE7635400584028C8388FA
:1042C000048B4FF68F752C40B51E2C400D882C4367
:1042D000751E2A400D892A434D882A436A4DA842FB
:1042E0000BD06F4DA84208D0744DA84205D0744D34
:1042F000A84202D0734DA84213D14FF6F7752A4059
:104300004D892A434FF6FB752A408D882A434FF684
:10431000FF652B404FF6FF552B408D892B43CD89F0
:104320002B4383800483CD888586028470BD70B55D
:10433000002400220023058C4FF6EF7635400584DB
:10434000028C8388048B48F6FF752C404FF6FF459E
:104350002C400D884FF6FF7606EA05252C434FF6D4
:10436000DF752A400D8906EA05152A434D8806EABD
:1043700005152A43444DA84202D0494DA8421DD1FB
:104380004FF67F752A404D894FF6FF7606EA0515F0
:104390002A434FF6BF752A408D8806EA05152A4341
:1043A0004FF6FF352B404FF2FF752B408D8906EA03
:1043B00085052B43CD8906EA85052B43838004833D
:1043C000CD880587028470BD70B5002400220023CB
:1043D000058C4FF6FF6635400584028C8388848BFC
:1043E0004FF68F752C404FF6FC752C400D882C43F2
:1043F0004FF6FF552A400D894FF6FF7606EA052550
:104400002A434D8806EA05252A431F4DA84202D0BB
:10441000234DA8421DD14FF2FF752A404D894FF61A
:10442000FF7606EA05252A434FF6FF352A408D8898
:1044300006EA05252A434EF6FF752B404DF6FF751B
:104440002B408D8906EA05152B43CD8906EA051513
:104450002B4383808483CD888587028470BD70B5AB
:10446000002200230024058C4EF6FF76354005849B
:10447000038C8488828B48F6FF752A404FF6FF45EF
:104480002A400D8820E00000002C0140000400407C
:1044900000080040000C00400010004000140040E4
:1044A00000340140004C01400050014000540140E4
:1044B00000180040001C0040002000400040014067
:1044C00000440140004801404FF6FF7606EA05250A
:1044D0002A434DF6FF752B400D8906EA05352B431F
:1044E0004D8806EA05352B43FA4DA84202D0FA4D15
:1044F000A84208D14BF6FF752C408D894FF6FF7608
:1045000006EA85152C4384808283CD88A0F840502C
:10451000038470BD828B4FF2FF331A408283828BFB
:104520004FF6FF7303EA01231A4382837047F0B505
:104530000C461546002200210026078C4EF6FF7C13
:1045400007EA0C070784828B018C4FF6FF7707EA96
:10455000043640F6FF473A404FF6FF7707EA052753
:104560003A434FF6FF7707EA03373A43D94FB84249
:104570000ED0D94FB8420BD0B0F1804F08D0D74FF2
:10458000B84205D0D64FB84202D0D64FB84206D175
:104590004DF6FF77394046F48057394305E047F63A
:1045A000FF57394044F48057394382830184F0BD7A
:1045B000828B4FF6F3731A408283828B0A43828385
:1045C0007047F0B50C461546002200210026078CE6
:1045D0004FF6FF6C07EA0C070784828B018C4FF6BD
:1045E000FF7707EA04264FF60C773A404FF6FF773D
:1045F00007EA03172F433A43B64FB8420ED0B64FDF
:10460000B8420BD0B0F1804F08D0B44FB84205D0BB
:10461000B34FB84202D0B34FB84206D14FF6FF575E
:10462000394046F48077394305E04FF2FF5739406F
:1046300044F48077394382830184F0BD028B4FF2CA
:10464000FF331A400283028B4FF6FF7303EA012304
:104650001A4302837047F0B50C461546002200212C
:104660000026078C4FF6EF7C07EA0C070784028BC5
:10467000018C4FF6FF7707EA041640F6FF473A40F1
:104680004FF6FF7707EA03373A434FF6FF7707EA1B
:1046900005273A438F4FB8420ED08F4FB8420BD008
:1046A000B0F1804F08D08D4FB84205D08C4FB84242
:1046B00002D08C4FB84206D14FF6DF77394046F032
:1046C0001007394305E04FF65F77394044F0100793
:1046D000394302830184F0BD028B4FF6F3731A4015
:1046E0000283028B0A4302837047F0B50C461546DD
:1046F00000220021068C4FF6FE773E400684028B96
:10470000018C4FF60C7632407E1C06EA03162E43CF
:104710003243704EB0420ED06F4EB0420BD0B0F16B
:10472000804F08D06D4EB04205D06D4EB04202D0E1
:104730006C4EB04206D14FF6FD76314044F0010692
:10474000314305E04FF6F576314044F00106314340
:1047500002830184F0BD70B505460C465D48854274
:104760000ED05D4885420BD0B5F1804F08D05B4834
:10477000854205D05A48854202D05A48854200D128
:1047800000E000BF208850B92389A28861882846AC
:10479000FFF7ABFFE1882846FFF79EFF25E0208862
:1047A00004280AD12389A28861882846FFF753FF8D
:1047B000E1882846FFF742FF17E0208808280AD141
:1047C0002389A28861882846FFF7FBFEE1882846F6
:1047D000FFF7EEFE09E02389A28861882846FFF7EB
:1047E000A6FEE1882846FFF795FE70BD2DE9F04151
:1047F00005460C4600260127608808B9022600E01D
:104800000026A088012801D1022700E00127208886
:10481000A0B92389A28861882846FFF766FFE1884E
:104820002846FFF759FF23893A4631462846FFF7C5
:1048300012FFE1882846FFF701FF13E02389A288D1
:1048400061882846FFF707FFE1882846FFF7F6FE54
:1048500023893A4631462846FFF747FFE188284634
:10486000FFF73AFFBDE8F0810A884B881A438B882E
:104870001A43CB881A430B891A434B891A438B89F5
:104880001A43A0F8442070474FF6FF718180002141
:104890000180C18041800172704700210180418008
:1048A0008180C180018141818181C1817047002166
:1048B00001804180012181800021C18001817047F8
:1048C0000021018041808180C180018141818181FD
:1048D00070470000002C01400034014000040040FB
:1048E00000080040000C004021B1028842F00102A3
:1048F000028004E002884FF6FE731A40028070477F
:1049000031B1B0F8442042F40042A0F8442005E060
:10491000B0F84420C2F30E02A0F8442070471AB148
:1049200083890B43838102E083898B4383817047B2
:104930008182704741EA0203A0F8483070471AB1FB
:1049400083890B43838102E083898B438381704792
:1049500001894FF6F8721140018170470A46002123
:1049600001894FF68F73194011430181704730B5AB
:1049700004460D4629462046FFF7F0FF208940F007
:104980000700208130BD2DE9F04104460D46164652
:104990001F46602D06D13B46012231462046FFF7D7
:1049A0005AFE05E03B46012231462046FFF79DFEB8
:1049B00029462046FFF7D2FF208940F007002081DA
:1049C000BDE8F08130B50C4600210189C9B24FF62F
:1049D000FF7505EA0325154325432943018130BDB1
:1049E0002DE9F04105460E461746984600244346F9
:1049F0003A4631462846FFF7E5FF2C894FF6F87016
:104A0000044044F007044FF68F70044044F07004F3
:104A10002C81BDE8F081F0B504460D4616461F46D0
:104A20003B46324629462046FFF7CCFF208940F41A
:104A300080402081F0BD0185828270470A460021B6
:104A400001884FF68F731940114301807047F0B50C
:104A50000C4615461E460021002200230189028BC8
:104A6000038C4FF6F877394021434FF6FC473A4024
:104A700040F201173A434FF6DD773B404FF6FF77A0
:104A800007EA06172F433B43018102830384F0BDED
:104A90000A460021018B4FF68F73194011430183A1
:104AA00070470A460021018B48F6FF7319404FF604
:104AB000FF7303EA02231943018370470A4600216A
:104AC000818B4FF68F7319401143818370470A46DB
:104AD0000021818B48F6FF7319404FF6FF7303EAFC
:104AE000022319438183704721B1028842F080027A
:104AF000028004E002884FF67F731A4002807047FC
:104B000021B1828842F00402828004E082884FF65C
:104B1000FB731A408280704721B1828842F00802FC
:104B2000828004E082884FF6F7731A4082807047D3
:104B300021B1828842F00102828004E082884FF62F
:104B4000FE731A40828070470A460021018B4FF69F
:104B5000F77319401143018370470A460021018B06
:104B60004FF2FF7319404FF6FF7303EA0223194314
:104B7000018370470A460021818B4FF6F773194075
:104B80001143818370470A460021818B4FF2FF73E6
:104B900019404FF6FF7303EA0223194381837047DC
:104BA0000A460021018B4FF6FB7319401143018324
:104BB00070470A460021018B4FF6FF3319404FF62C
:104BC000FF7303EA02231943018370470A46002159
:104BD000818B4FF6FB7319401143818370470A465E
:104BE0000021818B4FF6FF3319404FF6FF7303EA24
:104BF00002231943818370470A460021018B4FF637
:104C00007F7319401143018370470A460021018BCD
:104C1000C1F30E014FF6FF7303EA02231943018328
:104C200070470A460021818B4FF67F73194011436C
:104C3000818370470A460021818BC1F30E014FF634
:104C4000FF7303EA02231943818370470A46002158
:104C5000018C4FF6FD7319401143018470470A46D9
:104C60000021018C4FF6F7731940114301847047FE
:104C70000A460021018C4FF6DF7319404FF6FF738F
:104C800003EA02131943018470470A460021018C8C
:104C90004FF67F7319404FF6FF7303EA021319436F
:104CA000018470470A460021018C4FF6FF531940DA
:104CB0004FF6FF7303EA02231943018470470A4643
:104CC0000021018C4FF2FF7319404FF6FF7303EA86
:104CD00002231943018470470A460021018C4DF6D6
:104CE000FF7319404FF6FF7303EA0233194301843F
:104CF000704730B5002301248C40A3B2048C9C4340
:104D00000484048C02FA01F5ADB22C43048430BD56
:104D100030B5002304248C40A3B2048C9C4304844B
:104D2000048C02FA01F5ADB22C43048430BD70B599
:104D30000346002000241846183001258D40ACB2EF
:104D40001D8CA5431D8409B1082909D100EB610020
:104D5000056825F0700505600568154305600EE0DF
:104D60000D1FC5F34E052844056825F4E045056090
:104D700005684FF6FF7606EA02263543056070BDEA
:104D800021B1028842F00202028004E002884FF65C
:104D9000FD731A400280704721B1028842F004027C
:104DA000028004E002884FF6FB731A4002807047CD
:104DB00021B1828842F08002828004E082884FF62E
:104DC0007F731A408280704702884FF6F7731A404B
:104DD000028002880A430280704782884FF68F73F0
:104DE0001A40828082880A438280704702894FF687
:104DF000F8731A40028102890A43028170470289CE
:104E00004FF67F731A40028102890A43028170477C
:104E1000818470478185704781867047018770471C
:104E200081877047A0F84010704702884FF6FF4313
:104E30001A40028002880A43028070470146888E29
:104E400070470146088F70470146888F70470146BA
:104E5000B1F8400070470146888C70470146088DC4
:104E6000704702460020138A0B400BB1012000E07E
:104E700000207047CA430282704730B502460020C6
:104E800000230024158A05EA0103958905EA010437
:104E900013B10CB1012000E0002030BDCA430282F2
:104EA0007047000001460020FE4A106800F03800FC
:104EB000084310607047FB49096821F00801F94A6E
:104EC000116011460968014311607047F54909688E
:104ED00021F01001F34A1160114609680143116085
:104EE0007047F148EF494860F04848607047EE4825
:104EF000EC494860ED4848607047EA48006940F076
:104F00008000E84908617047E648006940F0800089
:104F1000E449086170470420E249C96801F00101D1
:104F200009B101200EE0DF49C96801F0040109B1AF
:104F3000022007E0DB49C96801F0100109B1032034
:104F400000E00420704700B502460423FFF7E3FFAA
:104F5000034603E0FFF7DFFF0346521E012B01D19A
:104F6000002AF7D102B90523184600BD30B5044622
:104F700004254FF43020FFF7E6FF0546042D17D136
:104F8000C848006940F00200C6490861084644610B
:104F9000006940F0400008614FF43020FFF7D3FF74
:104FA0000546C048006941F6FD710840BD490861E9
:104FB000284630BD10B504244FF43020FFF7C3FF5E
:104FC0000446042C16D1B748006940F00400B549E6
:104FD00008610846006940F0400008614FF4302045
:104FE000FFF7B1FF0446AF48006941F6FB71084086
:104FF000AC490861204610BD00B502460423FFF706
:105000008AFF034603E0FFF786FF0346521E012B8B
:1050100001D1002AF7D102B90523184600BD10B509
:1050200004244FF43020FFF7E7FF0446042C16D188
:105030009C48006940F004009A49086108460069EC
:1050400040F0400008614FF43020FFF7D5FF0446E0
:105050009448006941F6FB71084092490861204676
:1050600010BD00208F49C96901F0020109B101207A
:1050700000E00020704730B5A5250424FFF7F1FFBC
:1050800000B100254FF43020FFF75DFF0446042CEB
:105090003AD1854883498860844888600846006919
:1050A00040F0200008610846006940F040000861B7
:1050B0004FF43020FFF747FF0446042C1BD17948FA
:1050C000006941F6DF7108407649086108460069C9
:1050D00040F01000086176480580E002FFF733FFDA
:1050E0000446052C10D06F48006941F6EF71084066
:1050F0006C49086108E0052C06D06A48006941F651
:10510000EF71084067490861204630BD78B5064612
:105110000C46042500200090E802FFF714FF054626
:10512000042D24D15F48006940F001005D49086109
:105130003480E802FFF707FF0546042D10D1B01CAC
:105140000090200C00990880E802FFF7FCFE05465D
:105150005448006941F6FE7108405249086106E072
:105160005048006941F6FE7108404E4908612846E2
:1051700078BD70B504460D460426F002FFF7E3FE45
:105180000646042E11D14748006940F00100454908
:1051900008612580F002FFF7D6FE06464148006907
:1051A00041F6FE7108403F490861304670BD70B558
:1051B00005460E460424E002FFF7C5FE0446042C13
:1051C00017D13948374988603848886008460069EF
:1051D00040F0100008612E80E002FFF7B4FE0446A4
:1051E000052C06D02F48006941F6EF7108402D4983
:1051F0000861204670BD2DE9F04304464FF6FF7666
:105200003746B046B1460425E443E6B2C4F3072767
:10521000C4F307484FEA1469E802FFF794FE054615
:10522000042D49D120481F498860204888600846DD
:10523000006940F010000861FF2E06D01C480830BD
:105240000680E802FFF77FFE0546042D08D1FF2FF8
:1052500006D017480A300780E802FFF774FE0546BB
:10526000042D0AD1B8F1FF0F07D011480C30A0F877
:105270000080E802FFF767FE0546042D0AD1B9F168
:10528000FF0F07D00A480E30A0F80090E802FFF7A1
:105290005AFE0546052D0FD00248006941F6EF7110
:1052A000084007E00020024023016745AB89EFCDAD
:1052B00000F8FF1F664908612846BDE8F08330B555
:1052C000054604244FF43020FFF73DFE0446042C2D
:1052D00041D160485E4988605F488860084600693F
:1052E00040F0200008610846006940F04000086175
:1052F0004FF43020FFF727FE0446042C22D15448F7
:10530000006941F6DF7108405149086108460069AB
:1053100040F0100008611DB100205049088002E0F3
:10532000A5204E4908804FF43020FFF70CFE0446BC
:10533000052C10D04648006941F6EF7108404449F9
:10534000086108E0052C06D04148006941F6DF718C
:1053500008403F490861204630BDF0B505460E467D
:10536000174604243B483A4988603B488860E0027D
:10537000FFF7E9FD0446042C19D13548006940F0D7
:1053800010003349086147F0F8003043284333499F
:10539000891C0880E002FFF7D6FD0446052C06D0E4
:1053A0002B48006941F6EF71084029490861204601
:1053B000F0BD2748C069800870472548006A7047DB
:1053C00000202349096801F0200109B1012000E013
:1053D0000020704729B11E4A126902431C4B1A6112
:1053E00004E01B4A12698243194B1A617047014657
:1053F0000020012908D1164AD26902F001020AB13F
:10540000012008E0002006E0114AD2680A400AB1F3
:10541000012000E0002070470D49C860704704205B
:105420000B49C96801F0010109B101200EE00849EA
:10543000C96801F0040109B1022007E00449C96804
:1054400001F0100109B1032000E0042070470000C2
:105450000020024023016745AB89EFCD00F8FF1F14
:105460000E49086070470D49486070470B498860D5
:1054700070474AF6AA200949086070474CF6CC40AC
:1054800006490860704701460020044AD2680A4075
:105490000AB1012000E00020704700000030004009
:1054A000012010498860704701460E48016000687D
:1054B000704710B502460B46002100BF04E052F8C9
:1054C0002100084C2060491C9942F8D30548006827
:1054D00010BD0448006870470249087170470148D0
:1054E0000079704700300240704700001CB50C4640
:1054F000064B7B4469460090204600F0F0FC0446D1
:105500000020694600F0FEFC20461CBD0F0A00008A
:105510000FB4044910B503AA029800F00FFD10BCA7
:105520005DF814FBF80400200FB41CB5084B06AA64
:105530007B4469460090059800F0D1FC04460020A9
:10554000694600F0DFFC20461CBC5DF814FB00003F
:10555000D109000070B5044685690068C10601D50F
:10556000302600E02026C00707D070BDD4E9012115
:1055700030469047206A401C20626D1EF6D570BDF3
:1055800070B5044685690078C00707D170BDD4E9BD
:10559000012120209047206A401C20626D1EF6D514
:1055A00070BD70B50C460546012A05D028788006E6
:1055B00000D5EA69002302E0012305E05B1C934269
:1055C00002D2E05C0028F9D1A869E618C01AA861E7
:1055D000286A184428622846FFF7BCFF04E0D5E992
:1055E000012114F8010B9047B442F8D32846FFF785
:1055F000C7FF70BD2DE9F0410646002410687529EB
:10560000314616A510D000F0D8F9002802DA404241
:1056100013A507E031688A0701D512A502E0490702
:1056200004D511A5012401E000F0D0F900210A22DF
:1056300006F1240709E0B0FBF2FCB0FBF2F302FB39
:105640001C00303078541846491C0028F3D12346FA
:105650002A463046BDE8F04100F0C1B90000000024
:105660002D0000002B000000200000002DE9F05F5D
:10567000894604464FF0000ADFF874B1FB44C0F8D5
:1056800020A02046E1688847002874D0252806D04D
:10569000D4E901219047206A401C2062F1E70026EE
:1056A0005F462046E16888472028054607DB312D04
:1056B00005D2781910F8200C08B10643F1E7B007BD
:1056C00001D526F00406C4F81CA00027C4F818A0D1
:1056D0002A2D09D0284602F03AFC38B304EB87089B
:1056E000303DC8F8185019E059F8041B204604EB67
:1056F00087029161E1688847012F054618D1E0696A
:10570000002820DA26F020061DE0D8F8180000EB6B
:10571000800005EB40003038C8F818002046E168EA
:105720008847054602F013FC0028EED1012F0AD06D
:105730002E2D08D12046E16888477F1C0546022FA0
:1057400046F02006C4DBA069002803DA404246F098
:105750000106A061F00701D026F010066C2D0BD0D9
:10576000682D09D04C2D39D06A2D35D0742D35D007
:105770007A2D33D016E038E0E1682F46204688477E
:10578000B842054609D16C2F26D04FF48060E168FD
:10579000064320468847054604E06C2F1AD04FF494
:1057A000807006430DB3A5F14100192802D82035B9
:1057B00046F400664A462946204626604E46FAF7D9
:1057C00011FD80B101280BD0F61D26F0070000F175
:1057D000080956E74020E4E78020D8E70020D6E714
:1057E00006F104094DE7284652E7206ABDE8F09F1C
:1057F0006849000070B5064600F0D0F80468054618
:1058000030460A22002100F002F82C6070BD2DE91C
:10581000F04791460F4680460446002614F8015B87
:105820002DB100F0B3F80068405DC007F6D12B2D14
:1058300002D02D2D18D0641E4A463946204600F06D
:10584000ADFC27B13968A14201D1C7F800804FF003
:10585000020471050BD54042002803DD00F09EF8DC
:105860000460A007BDE8F08746F48066E4E70028FE
:10587000F8DA00F093F804606FF00040F2E730B51A
:1058800005460B462A4613F8014B12F8010B08B1E6
:10589000A042F8D01CB1002802D06D1CF1E72846C8
:1058A00030BD10B5431C02E010F8011B71B1810737
:1058B000FAD14FF0013202C88C1A8C4314EAC2119B
:1058C000F9D0C01A0A0603D0C01E10BDC01A10BD00
:1058D0000A0401D0801E10BD0902FCD0401E10BD7C
:1058E0004FF0000200B5134694469646203922BF79
:1058F000A0E80C50A0E80C50B1F12001BFF4F7AFC4
:10590000090728BFA0E80C5048BF0CC05DF804EBA5
:10591000890028BF40F8042B08BF704748BF20F813
:10592000022B11F0804F18BF00F8012B704710B503
:10593000044610F0030F08BF11F0030F40F015806C
:105940004FF0013E121FC0F20E8051F8043BA3EB52
:105950000E0C2CEA030C1CEACE1C08BF40F8043BDA
:10596000F0D0A1F1040102F10402521E08DB11F88B
:10597000013B002B00F8013BF7D1114600F0B0FCD1
:10598000204610BD704770477047704710B500F053
:10599000CDFC001D10BD00BF2D3800000048704731
:1059A0000441002010B5FFF7F9FF006810BD10B5E5
:1059B0000446FFF7F3FF046010BD09684A0501D5EE
:1059C00040B27047C905FCD500B2704709684A0566
:1059D00001D5C0B27047C905FCD580B270472DE92A
:1059E000F0470D4699469246044600F124080168A6
:1059F000880604D5E06921F01001216000E0012053
:105A0000A84201DD471B00E00027A1697A1902EBDB
:105A10000900081AA0612078C00602D42046FFF7CA
:105A200099FD002608E0D4E901211AF80600904704
:105A3000206A401C761C20624E45F4DB2078C006AC
:105A40000AD52046FFF786FD06E0D4E90121302083
:105A50009047206A401C2062381EA7F10107F4DC41
:105A600007E0D4E9012118F805009047206A401C9E
:105A70002062281EA5F10105F3DC2046FFF780FD1A
:105A80002078000602D50220BDE8F0870120FBE760
:105A900011680268006A530501D508700AE0D30551
:105AA00001D5088006E0130603D5C217C1E900023C
:105AB00000E008600120704770472DE9FF4F0C4659
:105AC0001E464FF0FF378BB0D2E90001DDF8608051
:105AD0000A908A46C1F30A5505B93D460021084699
